:020000040000FA
:100000000C9463000C948B000C948B000C948B006C
:100010000C948B000C948B000C948B000C948B0034
:100020000C948B000C948B000C948B000C948B0024
:100030000C948B000C948B000C948B000C948B0014
:100040000C9481030C948B000C94F1030C94CB035F
:100050000C948B000C948B000C948B000C948B00F4
:100060000C948B000C948B000000000024002700EF
:100070002A0000000000250028002B0000000000DE
:1000800023002600290004040404040404040202DA
:100090000202020203030303030301020408102007
:1000A0004080010204081020010204081020000012
:1000B0000008000201000003040700000000000027
:1000C00000002304610711241FBECFEFD8E0DEBF7C
:1000D000CDBF23E0AAEFB1E001C01D92AF31B2075E
:1000E000E1F711E0A0E0B1E0ECE5F3E102C005903A
:1000F0000D92AA3FB107D9F710E0C2E6D0E004C0E4
:100100002197FE010E94A007C136D107C9F70E94BE
:10011000D8040C94A1090C94000096E0899FD001AA
:100120001124AA55BD4F90967C936E935F9791E0F2
:1001300091969C939197E0911303F0911403909101
:100140001203992339F0309751F0811108C0809142
:10015000C2020994309719F05C968C91FACF0895F9
:10016000CF92DF92EF92FF920F931F9396E0899FB9
:10017000F0011124EA55FD4F11A2278D30A1213045
:10018000310551F178F02230310509F451C02330A6
:10019000310509F452C01F910F91FF90EF90DF904D
:1001A000CF9008956623B9F361E070E00E948D005E
:1001B0002FB7F8948091FF0190910002A091010265
:1001C000B09102022FBF8093FE029093FF02A09392
:1001D0000003B0930103DFCF9FB7F894C090FF01F5
:1001E000D0900002E0900102F09002029FBF0091C7
:1001F000FE021091FF022091000330910103C01A0A
:10020000D10AE20AF30A009110031091110330E0C1
:1002100020E00C151D052E053F0550F462E070E04E
:100220001F910F91FF90EF90DF90CF900C948D0075
:100230006111B1CF63E070E0F3CF70E060E0F0CF28
:10024000833081F028F4813099F08230A9F008954C
:100250008730A9F08830C9F08430B1F480918000F3
:100260008F7D03C0809180008F77809380000895F8
:1002700084B58F7784BD089584B58F7DFBCF809141
:10028000B0008F778093B00008958091B0008F7D8B
:10029000F9CFCF93DF93282F30E0F901E255FF4FDC
:1002A0008491F901E656FF4FD491F901EA57FF4FC7
:1002B000C491CC23A1F081110E942001EC2FF0E029
:1002C000EE0FFF1FE458FF4FA591B491EC91ED2381
:1002D00081E090E009F480E0DF91CF91089580E023
:1002E00090E0FACF1F93CF93DF93282F30E0F901EE
:1002F000E255FF4F8491F901E656FF4FD491F90181
:10030000EA57FF4FC491CC23A9F0162F81110E9408
:100310002001EC2FF0E0EE0FFF1FEE58FF4FA591EC
:10032000B4918FB7F894EC91111108C0D095DE23E9
:10033000DC938FBFDF91CF911F910895DE2BF8CF13
:10034000CF93DF9390E0FC01E656FF4F24918A574C
:100350009F4FFC0184918823C9F090E0880F991F7A
:10036000FC01E859FF4FA591B491FC01EE58FF4FF5
:10037000C591D49161110DC09FB7F8948C912095CF
:1003800082238C938881282328839FBFDF91CF917C
:100390000895623051F49FB7F8943C91822F809574
:1003A00083238C93E8812E2BEFCF8FB7F894EC91B9
:1003B0002E2B2C938FBFEACF862F642F0C94A00195
:1003C000862F642F0C947201862F0C944901AF92F2
:1003D000BF92CF92DF92EF92FF920F931F93CF9332
:1003E000DF936C017B018B01040F151FEB015E0194
:1003F000AE18BF08C017D10759F06991D601ED9129
:10040000FC910190F081E02DC6010995892B79F7C7
:10041000C501DF91CF911F910F91FF90EF90DF9079
:10042000CF90BF90AF900895FC01538D448D252F40
:1004300030E0842F90E0821B930B541710F0CF967E
:10044000089501970895FC01918D828D981761F0B0
:10045000A28DAE0FBF2FB11D5D968C91928D9F5FC7
:100460009F73928F90E008958FEF9FEF0895FC01A6
:10047000918D828D981731F0828DE80FF11D858D59
:1004800090E008958FEF9FEF0895FC01918D228DEC
:10049000892F90E0805C9F4F821B91098F73992771
:1004A000089583E092E00E94450221E0892B09F43F
:1004B00020E0822F089580E090E0892B29F00E94AF
:1004C000510281110C9400000895FC01A48DA80F25
:1004D000B92FB11DA35ABF4F2C91848D90E0019686
:1004E0008F739927848FA689B7892C93A089B189A6
:1004F0008C91837080648C93938D848D981306C047
:100500000288F389E02D80818F7D80830895EF92AA
:10051000FF920F931F93CF93DF93EC0181E0888FBD
:100520009B8D8C8D98131AC0E889F989808185FF8D
:1005300015C09FB7F894EE89FF896083E889F9892F
:1005400080818370806480839FBF81E090E0DF9131
:10055000CF911F910F91FF90EF900895F62E0B8D84
:1005600010E00F5F1F4F0F731127E02E8C8D8E113F
:100570000CC00FB607FCFACFE889F989808185FFA6
:10058000F5CFCE010E946502F1CFEB8DEC0FFD2F70
:10059000F11DE35AFF4FF0829FB7F8940B8FEA8961
:1005A000FB8980818062CFCFCF93DF93EC01888D70
:1005B0008823B9F0AA89BB89E889F9898C9185FDDE
:1005C00003C0808186FD0DC00FB607FCF7CF8C916C
:1005D00085FFF2CF808185FFEDCFCE010E946502BD
:1005E000E9CFDF91CF91089542E050E065E371E0FB
:1005F00083E092E00C94E701CF93DF93FC01448108
:1006000055816081718183E092E00E94E701EC01F5
:100610000E94F4028C0F9D1FDF91CF910895CF931C
:10062000DF93FC0101900020E9F73197AF01481BEF
:10063000590BBC0183E092E00E94E701EC010E94AB
:10064000F4028C0F9D1FDF91CF910895FC018081F2
:100650009181009711F00C94420808950F931F9315
:10066000CF93DF93EC0188819981009759F02A811B
:100670003B812617370730F081E0DF91CF911F9142
:100680000F9108958B016F5F7F4F0E94CB080097F9
:1006900059F0998388831B830A832C813D81232B06
:1006A00059F7FC011082E8CF80E0E7CFEF92FF928C
:1006B0000F931F93CF93DF93EC017B018A01BA0163
:1006C0000E942E0328813981811114C02115310522
:1006D00019F0C9010E944208198218821D821C82E9
:1006E0001B821A82CE01DF91CF911F910F91FF9053
:1006F000EF9008951D830C83B701C9010E949A09E8
:10070000F1CF1F920F920FB60F9211242F933F93A8
:100710008F939F93AF93BF938091FF0190910002BD
:10072000A0910102B09102023091FE0123E0230F5B
:100730002D3758F50196A11DB11D2093FE01809320
:10074000FF0190930002A0930102B09302028091F6
:10075000FA019091FB01A091FC01B091FD0101967D
:10076000A11DB11D8093FA019093FB01A093FC01A0
:10077000B093FD01BF91AF919F918F913F912F91C8
:100780000F900FBE0F901F90189526E8230F02962A
:10079000A11DB11DD2CF1F920F920FB60F9211243F
:1007A0002F933F934F935F936F937F938F939F9379
:1007B000AF93BF93EF93FF9383E092E00E946502B3
:1007C000FF91EF91BF91AF919F918F917F916F9129
:1007D0005F914F913F912F910F900FBE0F901F90FF
:1007E00018951F920F920FB60F9211242F938F938B
:1007F0009F93EF93FF93E0911302F0911402808195
:10080000E0911902F0911A0282FD1BC09081809143
:100810001C028F5F8F7320911D02821741F0E091BF
:100820001C02F0E0ED5FFD4F958F80931C02FF915D
:10083000EF919F918F912F910F900FBE0F901F906E
:1008400018958081F4CF109206021092050288EE6E
:1008500093E0A0E0B0E08093070290930802A09399
:100860000902B0930A028DE191E090930402809313
:10087000030285EC90E09093100280930F0284ECC9
:1008800090E0909312028093110280EC90E090939C
:1008900014028093130281EC90E0909316028093EF
:1008A000150282EC90E0909318028093170286EC78
:1008B00090E090931A028093190210921C021092F9
:1008C0001D0210921E0210921F0210921603109227
:1008D0001503109218031092170310921A03109226
:1008E000190344E050E068E371E085E193E00E9481
:1008F00056031092A8021092AC021092AB02109212
:10090000AD028FE291E09093A7028093A602E2EC01
:10091000F2E01082148213821582369682E0EE3F56
:10092000F807B9F783E091E09093090380930803F7
:1009300080E091E090930B0380930A0384E080931E
:100940000C0383E080930D0387E091E0909307030D
:10095000809306038AE090E090930F0380930E0348
:1009600084EF91E09093110380931003109214038D
:1009700010921303109202031092030310920403C7
:1009800010920503109212031092A1021092A0027D
:100990001092A3021092A2021092A5021092A40239
:1009A00050E040E067E371E080EA92E00C94560387
:1009B000CF93DF9300D000D000D0CDB7DEB77894CE
:1009C00084B5826084BD84B5816084BD85B5826054
:1009D00085BD85B5816085BD80916E008160809305
:1009E0006E0010928100809181008260809381006E
:1009F000809181008160809381008091800081607E
:100A0000809380008091B10084608093B1008091D8
:100A1000B00081608093B00080917A008460809300
:100A20007A0080917A00826080937A0080917A00C7
:100A3000816080937A0080917A00806880937A0048
:100A40001092C100E0911302F091140282E08083C1
:100A5000E0910F02F09110021082E0911102F091EA
:100A600012028FEC808310921B02E0911702F0912A
:100A7000180286E08083E0911502F09116028081D1
:100A800080618083E0911502F09116028081886078
:100A90008083E0911502F091160280818068808346
:100AA000E0911502F091160280818F7D8083412CA8
:100AB000512C3201439440E0A42E40E0B42E51E08A
:100AC000509312038FB7F8944091FF0150910002A8
:100AD00060910102709102028FBF80910203909198
:100AE0000303A0910403B0910503481B590B6A0B43
:100AF0007B0B80910E0390910F03B0E0A0E0841770
:100B00009507A607B70708F020C110E080910C03F5
:100B1000181760F4E0910803F0910903E10FF11D4B
:100B200062E080810E94A0011F5FF0CF312C809194
:100B30000D03381608F061C0E32CF12CE0910A0394
:100B4000F0910B03EE0DFF1D61E080810E94A0017A
:100B5000E0910A03F0910B03EE0DFF1D60E0808130
:100B60000E947201D301C201032C04C0880F991F97
:100B7000AA1FBB1F0A94D2F74C016C01C094D094F9
:100B8000212C80910C03281608F5022D10E0E0912D
:100B90000803F0910903E00FF11F80810E944901D1
:100BA0000C5F1F4F000F111FF801EA55FD4F892BF5
:100BB00041F48081918188299929918380832394AC
:100BC000E0CF808191818C219D21F7CFE0910A03B4
:100BD000F0910B03EE0DFF1D61E080810E94720118
:100BE00080910A0390910B03E80EF91E60E0F70173
:100BF00080810E94A00133949ACF06EA12E0780126
:100C0000F701878D90A1892B31F4148E8FEF9FEF20
:100C1000968F858F11A296E0E90EF11CE2EEEE169A
:100C2000E2E0FE0669F7912C80910C03981608F01B
:100C300053C0812CC92CD12CCC0CDD1CC601825593
:100C40009D4F6C0120910D03821608F043C0F60100
:100C500060817181082C02C0769567950A94E2F74D
:100C6000929E90011124280D311DE6EAF2E080E009
:100C7000458D568D2417350709F411C18F5F3696BF
:100C80008A30B1F760FF24C0E6EAF2E090E080E04D
:100C9000448D411118C0E0910603F0910703E20F63
:100CA000F31F408156E0589FF001599FF00D112429
:100CB000EA55FD4F448F368F258F10A2178E61E0C5
:100CC0000E94B00005C0019636968A30910501F762
:100CD0008394B8CF9394A8CF80E0F80191A19111AB
:100CE000892F0A5F1F4FE016F106B9F79FB7F894F6
:100CF0004091FF0150910002609101027091020247
:100D00009FBF4093020350930303609304037093C7
:100D100005038823D1F08091C7028823B1F0809128
:100D2000C5029091C602019781F48091C20281119F
:100D30000FC0A114B10409F4C2CE0E94510288234D
:100D400009F4BDCE0E940000BACE10921203F1CF7A
:100D50000091A4021091A5028A3299F5011511059E
:100D600059F101501109E091A002F091A102E00FA8
:100D7000F11F1093A5020093A40210821A82198217
:100D80001C821B821E821D826091A0027091A102B2
:100D90006115710541F04091A4025091A502CE0168
:100DA00001960E945603CE0101960E94FC02CE01DC
:100DB00001960E942603BDCF8DE391E00E940F03B0
:100DC000B8CF833209F045C082EB91E004301105C1
:100DD000A9F71A8219821C821B821E821D826091D1
:100DE000A0027091A1026115710531F044E050E05C
:100DF000CE0101960E945603CE0101960E94FC028C
:100E0000CE0101960E9426032091A4023091A502F2
:100E10008091190390911A0328173907B9F480912A
:100E2000A0029091A10260911503709116030097A2
:100E3000C1F16115710539F4232B09F43FC0FC01A0
:100E4000808190E039C00E94910936C08BE891E022
:100E5000B5CF0430110518F083ED91E0AFCF898351
:100E60001A820F5F1F4FB80180EA92E00E942E03A2
:100E7000882309F483CF2091A0023091A1028091B0
:100E8000A4029091A502BE016F5F7F4F820F931F56
:100E90000E949A091093A5020093A4026FCF61707B
:100EA0000FCF6115710551F0232B41F0FB018081BB
:100EB00090E0919581959109892B41F688E691E022
:100EC0007DCF80EA92E00E94260385E193E00C94B6
:100ED00026032F923F924F925F926F927F928F9252
:100EE0009F92AF92BF92CF92DF92EF92FF920F93B9
:100EF0001F93CF93DF93CDB7DEB7CA1BDB0B0FB6C3
:100F0000F894DEBF0FBECDBF09942A88398848887F
:100F10005F846E847D848C849B84AA84B984C88415
:100F2000DF80EE80FD800C811B81AA81B981CE0F0C
:100F3000D11D0FB6F894DEBF0FBECDBFED010895F1
:100F4000EE0FFF1F0590F491E02D09940F931F936E
:100F5000CF93DF938230910510F482E090E0E0912E
:100F60001D03F0911E0330E020E0B0E0A0E03097D8
:100F700099F42115310509F44AC0281B390B243096
:100F80003105D8F58A819B816115710589F1FB01D5
:100F900093838283FE0111C04081518102811381BC
:100FA00048175907E0F04817590799F4109761F06E
:100FB00012960C93129713961C933296CF01DF91E1
:100FC000CF911F910F91089500931D0310931E035D
:100FD000F4CF2115310551F04217530738F0A9011C
:100FE000DB019A01BD01DF01F801C1CFEF01F9CFAB
:100FF00090931E0380931D03CDCFFE01E20FF31FDC
:10100000819391932250310939832883D7CF20913E
:101010001B0330911C03232B41F4209115013091C7
:10102000160130931C0320931B0320911301309170
:1010300014012115310541F42DB73EB74091170138
:1010400050911801241B350BE0911B03F0911C03F8
:10105000E217F307A0F42E1B3F0B2817390778F08F
:10106000AC014E5F5F4F2417350748F04E0F5F1FEE
:1010700050931C0340931B03819391939FCFF0E007
:10108000E0E09CCFCF93DF930097E9F0FC0132972B
:1010900013821282A0911D03B0911E03ED0130E076
:1010A00020E01097A1F420813181820F931F2091BD
:1010B0001B0330911C032817390709F061C0F09316
:1010C0001C03E0931B03DF91CF910895EA01CE1733
:1010D000DF07E8F54A815B819E0141155105B1F7B3
:1010E000E901FB83EA8349915991C40FD51FEC179D
:1010F000FD0761F4808191810296840F951FE901BB
:1011000099838883828193819B838A83F0E0E0E0E6
:1011100012968D919C9113970097B9F52D913C9162
:101120001197CD010296820F931F20911B033091DE
:101130001C032817390739F6309751F510921E0312
:1011400010921D03B0931C03A0931B03BCCFD38349
:10115000C28340815181840F951FC817D90761F45C
:101160004E5F5F4F88819981480F591F518340839B
:101170008A819B81938382832115310509F0B0CF49
:10118000F0931E03E0931D039ECFFD01DC01C0CF51
:1011900013821282D7CFB0E0A0E0E1EDF8E00C942A
:1011A0006B078C01009751F4CB010E94A6078C01BC
:1011B000C801CDB7DEB7E0E10C948707FC01E60F6C
:1011C000F71F9C0122503109E217F30708F49DC074
:1011D000D901CD91DC911197C617D70798F0C5308A
:1011E000D10530F3CE0104978617970708F3C61B85
:1011F000D70B2297C193D1936D937C93CF010E941B
:101200004208D6CF5B01AC1ABD0A4C018C0E9D1E64
:10121000A0911D03B0911E03512C412CF12CE12C07
:10122000109731F580911B0390911C038815990547
:1012300009F05CC04616570608F058C080911301AB
:1012400090911401009741F48DB79EB7409117011A
:1012500050911801841B950BE817F90708F055C049
:10126000F0931C03E0931B03F90171836083A0CF0B
:101270008D919C91119712966C90129713967C9079
:101280001397A815B90559F56C0142E0C40ED11C9D
:10129000CA14DB0420F1AC014A195B09DA01129689
:1012A000159780F06282738251834083D9016D93D8
:1012B0007C93E114F10471F0D7011396FC93EE9343
:1012C000129776CF22968C0F9D1FF9019183808310
:1012D000F301EFCFF0931E03E0931D0369CF48168F
:1012E000590608F42C017D01D3019ACFCB010E944D
:1012F000A6077C01009749F0AE01B8010E94880959
:10130000C8010E944208870153CF10E000E050CF8F
:10131000FB01DC0102C001900D9241505040D8F712
:101320000895FB01DC018D91019080190110D9F322
:10133000990B0895FB01DC0101900D920020E1F76B
:10134000089510E0C2E6D0E004C0FE010E94A007AC
:101350002196C336D107C9F7F894FFCF05040309D6
:101360000807063132333435363738392A3023000E
:10137000001F038000000000008702E7011402D470
:101380000245022302370200000000DC01E001E414
:10139000010D0A00313435390074686520646967CD
:1013A00069747320617265206E6F7420656E6F754D
:1013B000676820746F2064656C6574652074686567
:1013C0006D202100796F7420656E746572656420EC
:1013D00074686520636F72726563742070617373E3
:1013E000776F7264202100796F75206469646E7470
:1013F00020656E74657265642074686520636F7221
:101400007265637420616E73776572202100646970
:101410006769747320617265206E6F7420656E6FEA
:1014200075676820746F20636865636B202100799D
:101430006F752063616E7420656E746572206D6FC8
:101440007265207468616E20666F757220646967CA
:0614500069747320210005
:107E0000112484B714BE81FFF0D085E080938100F7
:107E100082E08093C00088E18093C10086E0809377
:107E2000C20080E18093C4008EE0C9D0259A86E02C
:107E300020E33CEF91E0309385002093840096BBD3
:107E4000B09BFECF1D9AA8958150A9F7CC24DD24C4
:107E500088248394B5E0AB2EA1E19A2EF3E0BF2EE7
:107E6000A2D0813461F49FD0082FAFD0023811F036
:107E7000013811F484E001C083E08DD089C08234E0
:107E800011F484E103C0853419F485E0A6D080C0E4
:107E9000853579F488D0E82EFF2485D0082F10E0AE
:107EA000102F00270E291F29000F111F8ED06801E7
:107EB0006FC0863521F484E090D080E0DECF843638
:107EC00009F040C070D06FD0082F6DD080E0C81688
:107ED00080E7D80618F4F601B7BEE895C0E0D1E017
:107EE00062D089930C17E1F7F0E0CF16F0E7DF06D8
:107EF00018F0F601B7BEE89568D007B600FCFDCFD4
:107F0000A601A0E0B1E02C9130E011968C91119780
:107F100090E0982F8827822B932B1296FA010C0160
:107F200087BEE89511244E5F5F4FF1E0A038BF0790
:107F300051F7F601A7BEE89507B600FCFDCF97BE46
:107F4000E89526C08437B1F42ED02DD0F82E2BD052
:107F50003CD0F601EF2C8F010F5F1F4F84911BD097
:107F6000EA94F801C1F70894C11CD11CFA94CF0C13
:107F7000D11C0EC0853739F428D08EE10CD085E9AC
:107F80000AD08FE07ACF813511F488E018D01DD067
:107F900080E101D065CF982F8091C00085FFFCCF94
:107FA0009093C60008958091C00087FFFCCF809118
:107FB000C00084FD01C0A8958091C6000895E0E648
:107FC000F0E098E1908380830895EDDF803219F02E
:107FD00088E0F5DFFFCF84E1DECF1F93182FE3DFCA
:107FE0001150E9F7F2DF1F91089580E0E8DFEE27F6
:047FF000FF270994CA
:027FFE00040479
:00000001FF
