:100000000C945E000C9486000C9486000C94860080
:100010000C9486000C9486000C9486000C94860048
:100020000C9486000C9486000C9486000C94860038
:100030000C9486000C9486000C9486000C94860028
:100040000C9490030C9486000C9486000C9486000B
:100050000C9486000C9486000C9486000C94860008
:100060000C9486000C948600000000080002010039
:100070000003040700000000000000000000000072
:10008000250028002B0000000000240027002A0083
:10009000040404040404040402020202020203032E
:1000A0000303030301020408102040800102040836
:1000B000102001020408102002054F0511241FBE64
:1000C000CFEFD8E0DEBFCDBF21E0AEE1B1E001C0AF
:1000D0001D92A735B207E1F711E0A0E0B1E0E8E832
:1000E000FFE002C005900D92AE31B107D9F710E0E4
:1000F000CDE5D0E004C02197FE010E94BF05CC35BC
:10010000D107C9F70E94DA030C94B7070C940000DA
:1001100090E0FC01EC55FF4F249180579F4FFC016C
:100120008491882399F090E0880F991FFC01EA5789
:10013000FF4FA591B491FC01E458FF4F8591949134
:100140008FB7F894EC91E22BEC938FBF089590E079
:10015000FC01E859FF4F2491FC01EC55FF4F34910D
:10016000FC01E057FF4FE491EE23C9F0222339F060
:10017000233001F1A8F4213019F1223029F1F0E007
:10018000EE0FFF1FE458FF4FA591B4918FB7F8947D
:10019000EC91611126C030953E233C938FBF0895AA
:1001A0002730A9F02830C9F0243049F78091800029
:1001B0008F7D03C0809180008F7780938000DFCF98
:1001C00084B58F7784BDDBCF84B58F7DFBCF8091E5
:1001D000B0008F778093B000D2CF8091B0008F7D38
:1001E000F9CF3E2BDACF3FB7F89480911F01909161
:1001F0002001A0912101B091220126B5A89B05C044
:100200002F3F19F00196A11DB11D3FBFBA2FA92F95
:10021000982F8827BC01CD01620F711D811D911D92
:1002200042E0660F771F881F991F4A95D1F70895FE
:100230000F931F93CF93DF93EC01888199810097EF
:1002400059F02A813B812617370730F081E0DF9192
:10025000CF911F910F9108958B016F5F7F4F0E9487
:10026000EA06009759F0998388831B830A832C81BF
:100270003D81232B59F7FC011082E8CF80E0E7CFC6
:10028000CF93DF93EC0188819981009711F00E9450
:100290006106198218821D821C821B821A82DF91DC
:1002A000CF910895EF92FF920F931F93CF93DF9317
:1002B000EC017B018A01BA010E94180181110BC077
:1002C000CE010E944001CE01DF91CF911F910F918D
:1002D000FF90EF9008951D830C83B7018881998169
:1002E0000E94B007F0CFCF93DF93EC01FB0186179C
:1002F000970749F0608171816115710541F0448172
:1003000055810E945201CE01DF91CF9108950E9444
:100310004001F9CFFC0180819181009711F00C948C
:10032000610608956F927F928F929F92AF92BF92D3
:10033000CF92DF92EF92FF920F931F93CF93DF93B1
:10034000CDB7DEB728970FB6F894DEBF0FBECDBF8E
:100350007C0181E0809352013AE2D32ED7011496BA
:100360008D919C910497A8F51A8219821C821B8298
:100370001E821D82B701CE0101960E947301DF82A9
:1003800018860D811E810F5F1F4FB801CE010196A7
:100390000E9418018823C1F029813A818D819E81B4
:1003A000BE01695F7F4F820F931F0E94B0071E83BB
:1003B0000D83BE016F5F7F4FC7010E947301CE01A5
:1003C00001960E948A01CACFCE0101960E94400187
:1003D000F0CF2AE4822E21E0922E10E000E03401DA
:1003E0008CE3C82E81E0D82E9AE4A92E91E0B92E94
:1003F000F5018081F2E0AF0EB11C61E00E94A70020
:1004000022E5A21621E0B20699F7D4018C91B2E060
:100410008B0E911C60E00E94A700F70184819581FA
:100420000817190728F40190F081E02D3097D9F4CE
:1004300010923B01EBE3F1E0E081E053EA3008F099
:1004400063C10E2E000CFF0BE75DFD4F61E00C94C5
:10045000BF05360282029C02BD02D902FA021B03CA
:100460003C0349036803E00FF11FE6CF80913C0194
:100470000E94A70061E080913E010E94A70061E018
:10048000809140010E94A70061E0809142010E949A
:10049000A70061E0809144010E94A70061E0809183
:1004A00046010E94A70060E0809148010E94A700D9
:1004B0000E94F3005B016C010E94F3006A197B0942
:1004C0008C099D09683E734081059105A8F30F5F73
:1004D0001F4F0430110509F083CF28960FB6F8940A
:1004E000DEBF0FBECDBFDF91CF911F910F91FF9067
:1004F000EF90DF90CF90BF90AF909F908F907F90C4
:100500006F90089580913E010E94A70061E0809164
:1005100040010E94A70060E080913C010E94A7007A
:1005200060E0809142010E94A70060E08091440158
:100530000E94A70060E0B3CF80913C010E94A70019
:1005400061E080913E010E94A70061E08091480136
:100550000E94A70061E0809142010E94A70061E033
:10056000809144010E94A70060E0809140010E94B8
:10057000A70060E08091460199CF80913C010E94E4
:10058000A70061E080913E010E94A70061E0809198
:1005900040010E94A70061E0809142010E94A700F3
:1005A00061E0809148010E94A70060E080914401D1
:1005B000DECF80913E010E94A70061E08091400162
:1005C0000E94A70061E0809146010E94A70061E0BF
:1005D000809148010E94A70060E0809142010E9442
:1005E000A70060E0809144010E94A70060E0809134
:1005F0003C015CCF80913C010E94A70061E08091AA
:1006000040010E94A70061E0809142010E94A70082
:1006100061E0809146010E94A70061E0809148015D
:100620000E94A70060E080913E010E94A70060E068
:10063000809144013BCF80913C010E94A70061E082
:10064000809140010E94A70061E0809142010E94D8
:10065000A70061E0809144010E94A70061E08091C1
:1006600046010E94A70061E0809148010E94A70016
:1006700060E080913E011ACF80913C010E94A7006A
:1006800061E080913E010E94A70061E080914001FD
:1006900045CF80913C010E94A70061E080913E011E
:1006A0000E94A70061E0809140010E94A70061E0E4
:1006B000809142010E94A70061E0809144010E9464
:1006C000A70061E0809146010E94A70061E0ECCEA6
:1006D00080913C010E94A70061E080913E010E9450
:1006E000A70061E0809140010E94A70061E0809135
:1006F00042010E94A70061E0809146010E94A7008C
:1007000061E08091480191CFD6018C91B2E0CB0E8F
:10071000D11C60E00E94A7006C147D04A9F7C8CE2C
:100720001F920F920FB60F9211242F933F938F9326
:100730009F93AF93BF938091230190912401A09147
:100740002501B091260130911E0123E0230F2D37A2
:1007500058F50196A11DB11D20931E018093230120
:1007600090932401A0932501B093260180911F014D
:1007700090912001A0912101B09122010196A11D2B
:10078000B11D80931F0190932001A0932101B0938C
:100790002201BF91AF919F918F913F912F910F9027
:1007A0000FBE0F901F90189526E8230F0296A11DEB
:1007B000B11DD2CFCF93DF93CDB7DEB768970FB619
:1007C000F894DEBF0FBECDBF789484B5826084BD3F
:1007D00084B5816084BD85B5826085BD85B5816045
:1007E00085BD80916E00816080936E0010928100C3
:1007F000809181008260809381008091810081607E
:10080000809381008091800081608093800080913E
:10081000B10084608093B1008091B00081608093CA
:10082000B00080917A00846080937A0080917A0091
:10083000826080937A0080917A00816080937A0050
:1008400080917A00806880937A001092C1008E01B6
:100850000F5F1F4F80E0C82E80E0D82E8FB7F8942E
:100860008090230190902401A0902501B090260152
:100870008FBF8092370190923801A0923901B092D7
:100880003A011A8219821C821B821E821D8261E338
:1008900071E0C8010E947301C8010E949201C80161
:1008A0000E948A0180912D0190912E01A0912F012B
:1008B000B0913001881A990AAA0ABB0A29EE821659
:1008C00023E09206A104B10408F457C080912B01E3
:1008D00090912C011C8A1B8A1E8A1D8A188E1F8AE1
:1008E0004AE0B8010E945305F80101900020E9F7A1
:1008F0003197AF01401B510BB801CE0143960E94C6
:100900005201AB88BC88A114B10419F1EF88F88CAE
:10091000E114F104F1F08091350190913601E80E77
:10092000F91EB70181E391E00E941801882389F044
:100930002091310130913201809135019091360141
:10094000B501820F931F0E94B007F0923601E0922A
:100950003501CE0143960E948A0180913701909122
:100960003801A0913901B0913A0180932D01909303
:100970002E01A0932F01B093300180903701909009
:100980003801A0903901B0903A01809127019091EF
:100990002801A0912901B0912A01A5019401281BE9
:1009A000390B4A0B5B0BDA01C90189389341A10568
:1009B000B105E0F080912B0190912C0101968A30D5
:1009C0009105DCF490932C0180932B0150E040E0E2
:1009D0006CE171E081E391E00E9452018092270175
:1009E00090922801A0922901B0922A01C114D10449
:1009F00009F434CF0E94000031CF10922C011092E4
:100A00002B01E4CFEF92FF920F931F93CF93DF93CD
:100A100000E011E0CCE3D1E07E01F801808191811A
:100A20000E5F1F4FF70180839183F2E0EF0EF11C00
:100A30000E94880081E00E30180779F70EE011E07F
:100A4000F801808191810E5F1F4F8E879F870E94E2
:100A5000880061E08E850E94A7002296F1E0C434F0
:100A6000DF0771F781E080935201109232011092FA
:100A7000310110923401109233011092360110921C
:100A8000350150E040E06CE171E081E391E0DF91FD
:100A9000CF911F910F91FF90EF900C94520181E341
:100AA00091E00C948A01BB274A3031F4992322F457
:100AB000BDE2909581959F4F0C945F05BB27FB018C
:100AC0005527AA27880F991FAA1FA41710F0A41B47
:100AD00083955051B9F7A05DAA3308F0A95DA193A1
:100AE000009779F7B111B1931192CB010C9478056D
:100AF000DC01FC01672F71917723E1F7329704C085
:100B00007C916D9370836291AE17BF07C8F308950F
:100B10002F923F924F925F926F927F928F929F920D
:100B2000AF92BF92CF92DF92EF92FF920F931F93FB
:100B3000CF93DF93CDB7DEB7CA1BDB0B0FB6F894AC
:100B4000DEBF0FBECDBF09942A88398848885F84EC
:100B50006E847D848C849B84AA84B984C884DF805D
:100B6000EE80FD800C811B81AA81B981CE0FD11D41
:100B70000FB6F894DEBF0FBECDBFED010895EE0FA6
:100B8000FF1F0590F491E02D09940F931F93CF93CD
:100B9000DF938230910510F482E090E0E0915501FE
:100BA000F091560130E020E0B0E0A0E0309799F4F9
:100BB0002115310509F44AC0281B390B24303105B1
:100BC000D8F58A819B816115710589F1FB019383B9
:100BD0008283FE0111C04081518102811381481737
:100BE0005907E0F04817590799F4109761F01296E9
:100BF0000C93129713961C933296CF01DF91CF91ED
:100C00001F910F9108950093550110935601F4CF51
:100C10002115310551F04217530738F0A901DB01C6
:100C20009A01BD01DF01F801C1CFEF01F9CF909327
:100C3000560180935501CDCFFE01E20FF31F819342
:100C400091932250310939832883D7CF20915301C2
:100C500030915401232B41F4209118013091190156
:100C600030935401209353012091160130911701C4
:100C70002115310541F42DB73EB740911A0150912D
:100C80001B01241B350BE0915301F0915401E21735
:100C9000F307A0F42E1B3F0B2817390778F0AC019F
:100CA0004E5F5F4F2417350748F04E0F5F1F50937C
:100CB000540140935301819391939FCFF0E0E0E082
:100CC0009CCFCF93DF930097E9F0FC01329713821A
:100CD0001282A0915501B0915601ED0130E020E063
:100CE0001097A1F420813181820F931F209153012D
:100CF000309154012817390709F061C0F09354016D
:100D0000E0935301DF91CF910895EA01CE17DF07F9
:100D1000E8F54A815B819E0141155105B1F7E90172
:100D2000FB83EA8349915991C40FD51FEC17FD0746
:100D300061F4808191810296840F951FE901998366
:100D40008883828193819B838A83F0E0E0E012961E
:100D50008D919C9113970097B9F52D913C91119726
:100D6000CD010296820F931F2091530130915401BF
:100D70002817390739F6309751F51092560110921D
:100D80005501B0935401A0935301BCCFD383C283C8
:100D900040815181840F951FC817D90761F44E5FB8
:100DA0005F4F88819981480F591F518340838A8101
:100DB0009B81938382832115310509F0B0CFF09395
:100DC0005601E09355019ECFFD01DC01C0CF138297
:100DD0001282D7CFB0E0A0E0E0EFF6E00C948A05F5
:100DE0008C01009751F4CB010E94C5058C01C8010C
:100DF000CDB7DEB7E0E10C94A605FC01E60FF71FC6
:100E00009C0122503109E217F30708F49DC0D90173
:100E1000CD91DC911197C617D70798F0C530D10551
:100E200030F3CE0104978617970708F3C61BD70B3C
:100E30002297C193D1936D937C93CF010E94610659
:100E4000D6CF5B01AC1ABD0A4C018C0E9D1EA09141
:100E50005501B0915601512C412CF12CE12C1097E9
:100E600031F580915301909154018815990509F04D
:100E70005CC04616570608F058C080911601909144
:100E80001701009741F48DB79EB740911A01509118
:100E90001B01841B950BE817F90708F055C0F09368
:100EA0005401E0935301F90171836083A0CF8D91C8
:100EB0009C91119712966C90129713967C901397B1
:100EC000A815B90559F56C0142E0C40ED11CCA142D
:100ED000DB0420F1AC014A195B09DA01129615977F
:100EE00080F06282738251834083D9016D937C9339
:100EF000E114F10471F0D7011396FC93EE9312976D
:100F000076CF22968C0F9D1FF90191838083F30188
:100F1000EFCFF0935601E093550169CF481659067B
:100F200008F42C017D01D3019ACFCB010E94C505A5
:100F30007C01009749F0AE01B8010E94A707C801E3
:100F40000E946106870153CF10E000E050CFFB0103
:100F5000DC0102C001900D9241505040D8F7089535
:100F6000FB01DC0101900D920020E1F7089510E0F3
:100F7000CDE5D0E004C0FE010E94BF052196CE352C
:080F8000D107C9F7F894FFCF77
:100F880007000600050004000300020001000D0030
:0E0F98000C000B000A00000057018000000052
:00000001FF
