:100000000C941A010C944B010C944B010C944B0171
:100010000C944B010C944B010C944B010C944B0130
:100020000C944B010C944B010C944B010C944B0120
:100030000C944B010C944B010C944B010C944B0110
:100040000C944B010C944B010C944B010C944B0100
:100050000C944B010C944B010C944B010C949E039B
:100060000C944B010C944B010C944B010C944B01E0
:100070000C944B010C944B010C944B010C944B01D0
:100080000C944B010C944B010C944B010C944B01C0
:100090000C944B010C944B010C944B010C944B01B0
:1000A0000C944B010C944B010C944B010C944B01A0
:1000B0000C944B010C944B010C944B010C944B0190
:1000C0000C944B010C944B010C944B010C944B0180
:1000D0000C944B010C944B010C944B010C944B0170
:1000E0000C944B010C947D010C94AD010C9498017F
:1000F0000C94BB010C94B7010C94CF010C94B30188
:100100000C9482010C9494010C94A3010C94C501ED
:100110000C94A0010C949C010C94A9010C94AA04C9
:100120000C94C9010C94D3010C94C101000021006E
:10013000240027002A002D003000330001010000B8
:10014000040107010A0100002200250028002B00FD
:100150002E003100340002010000050108010B01EE
:1001600005050505070508080808020202020A0A33
:100170000808040404040101010101010101030351
:10018000030303030303040707070C0C0C0C0C0CFC
:100190000C0C0202020206060606060606060B0BF9
:1001A0000B0B0B0B0B0B010210202008081020403A
:1001B000102040800201020108040201010204082B
:1001C00010204080804020100804020180040201B9
:1001D0008040201008040201080402010102040802
:1001E00010204080010204081020408000000A0B0B
:1001F00002090C0D0E0807030401000000000000B6
:1002000000000000000000000000000000000000EE
:1002100000000000000000001211100000000000AB
:1002200000000000000000000000000000000000CE
:100230000000AA0411241FBECFEFD1E2DEBFCDBF64
:1002400000E00CBF22E0AEE5B2E001C01D92AE3886
:10025000B207E1F712E0A0E0B2E0E6EEFEE000E077
:100260000BBF02C007900D92AE35B107D9F711E070
:10027000CAE1D1E000E006C021970109802FFE010C
:100280000E945305C931D10780E00807A9F70E94F1
:10029000E8030C9471070C940000282F30E0F9015A
:1002A000E451FE4F9491F901EA55FE4F4491205AD2
:1002B0003E4FF9012491222309F435C0992311F10D
:1002C00091509231F8F4E92FF0E08827E559FE4F7C
:1002D0008F4F0C9453059C01A0017D01940198015E
:1002E0008201A301A901AD01B301B701BB01C101A5
:1002F000C5018201C901CF01D301809180008F77B0
:1003000080938000E22FF0E0EE0FFF1FEA5BFE4FCC
:10031000A591B4918FB7F894EC91611148C04095C4
:100320004E234C938FBF0895809180008F7DE8CF3E
:1003300080918000877FE4CF84B58F7784BDE2CF42
:1003400084B58F7DFBCF8091B0008F778093B00014
:10035000D9CF8091B0008F7DF9CF809190008F77B9
:1003600080939000CFCF809190008F7DF9CF8091C6
:100370009000877FF5CF8091A0008F778093A000B9
:10038000C1CF8091A0008F7DF9CF8091A000877FA1
:10039000F5CF809120018F7780932001B3CF80919A
:1003A00020018F7DF9CF80912001877FF5CF4E2BE3
:1003B000B8CF3FB7F8948091630290916402A09106
:1003C0006502B091660226B5A89B05C02F3F19F0C3
:1003D0000196A11DB11D3FBFBA2FA92F982F8827C5
:1003E000BC01CD01620F711D811D911D42E0660FA0
:1003F000771F881F991F4A95D1F708958F929F9272
:10040000AF92BF92CF92DF92EF92FF924B015C01CD
:100410000E94D9016B017C010E94D9016C197D09F0
:100420008E099F09683E734081059105A8F321E07C
:10043000821A9108A108B10888EEC80E83E0D81E80
:10044000E11CF11C81149104A104B10429F7FF906F
:10045000EF90DF90CF90BF90AF909F908F900895D6
:10046000EF92FF920F931F93CF93DF93EB0123E063
:10047000CC0FDD1F2A95E1F7C659DD4F7C0133E033
:10048000EE0CFF1C3A95E1F710E000E0888122961F
:10049000F801EE0DFF1DEA5FFD4F60810E944D01E6
:1004A0006AE070E080E090E00E94FE010E5F1F4F66
:1004B0000830110559F7DF91CF911F910F91FF90EF
:1004C000EF9008950F931F93CF93DF93EC018881F2
:1004D0009981009759F02A813B812617370730F020
:1004E00081E0DF91CF911F910F9108958B016F5F94
:1004F0007F4F0E948006009759F0998388831B8361
:100500000A832C813D81232B59F7FC011082E8CF0F
:1005100080E0E7CFCF93DF93EC018881998100974A
:1005200011F00E94F705198218821D821C821B821D
:100530001A82DF91CF910895EF92FF920F931F934C
:10054000CF93DF93EC017B018A01BA010E94620222
:1005500081110BC0CE010E948A02CE01DF91CF91A2
:100560001F910F91FF90EF9008951D830C83B701A9
:10057000888199810E946A07F0CFCF93DF93EC01C5
:10058000FB018617970749F060817181611571053C
:1005900041F0448155810E949C02CE01DF91CF91B0
:1005A00008950E948A02F9CFFC0180819181009711
:1005B00011F00C94F7050895CF92DF92EF92FF921D
:1005C0000F931F93CF93DF9300D000D01F921F9201
:1005D000CDB7DEB77C018AE2D82ED70114968D9173
:1005E0009C910497A8F51A8219821C821B821E8294
:1005F0001D82B701CE0101960E94BD02DF821886DE
:100600000D811E810F5F1F4FB801CE0101960E9420
:1006100062028823C1F029813A818D819E81BE01C9
:10062000695F7F4F820F931F0E946A071E830D83AD
:10063000BE016F5F7F4FC7010E94BD02CE010196D0
:100640000E94D402CACFCE0101960E948A02F0CF46
:1006500010E000E06E01B7E0CB0ED11CF701848101
:1006600095810817190730F40190F081E02D30973B
:1006700009F054C010926902E9E6F2E020812A32C2
:1006800009F456C00817190730F4D701ED91FC9111
:10069000309709F046C010926902E9E6F2E08081E5
:1006A0001A8219821C821B821E821D828F831886E9
:1006B000F60101900020E9F73197AF014C195D096F
:1006C000B601CE0101960E949C0289819A81009711
:1006D00059F10E94E204CB01B8010E943002CE0120
:1006E00001960E94D4026AE070E080E090E00E94EF
:1006F000FE010F5F1F4F0430110509F0AFCF2896A0
:100700000FB6F894DEBF0FBECDBFDF91CF911F9122
:100710000F91FF90EF90DF90CF900895E00FF11FC1
:10072000ADCFE00FF11FBBCF80E090E0DC01D4CF74
:10073000B8018AE090E00E943002D5CF1F920F925C
:100740000FB60F9211242F933F938F939F93AF93E4
:10075000BF9380915F0290916002A0916102B0917D
:10076000620230915E0223E0230F2D3758F5019687
:10077000A11DB11D20935E0280935F0290936002E1
:10078000A0936102B093620280916302909164022F
:10079000A0916502B09166020196A11DB11D8093E2
:1007A000630290936402A0936502B0936602BF91C6
:1007B000AF919F918F913F912F910F900FBE0F900E
:1007C0001F90189526E8230F0296A11DB11DD2CFC8
:1007D000CF93DF93CDB7DEB768970FB6F894DEBF3F
:1007E0000FBECDBF789484B5826084BD84B581602E
:1007F00084BD85B5826085BD85B5816085BD8091EC
:100800006E00816080936E00109281008091810063
:10081000826080938100809181008160809381005B
:10082000809180008160809380008091B10084601D
:100830008093B1008091B00081608093B00080917E
:1008400091008260809391008091910081608093FB
:100850009100809190008160809390008091A10030
:1008600082608093A1008091A10081608093A100AB
:100870008091A00081608093A0008091210182601E
:1008800080932101809121018160809321018091D9
:10089000200181608093200180917A0084608093A0
:1008A0007A0080917A00826080937A0080917A0049
:1008B000816080937A0080917A00806880937A00CA
:1008C0001092C1008E010F5F1F4F80E0E82E80E084
:1008D000F82E80916702909168021C8A1B8A1E8AFA
:1008E0001D8A188E1F8A4AE0B8010E940905F80186
:1008F00001900020E9F73197AF01401B510BB8017F
:10090000CE0143960E949C02CE0143960E94DC02D7
:10091000CE0143960E94D40268EE73E080E090E03E
:100920000E94FE01809167029091680202968C3DC0
:100930002EE1920754F49093680280936702E114C9
:10094000F10439F20E940000C4CF109268021092A4
:100950006702F5CF0F931F93CF93DF930AE612E060
:10096000C6E1D0E0F801D183C083FE01EA55FE4F15
:100970002491FE01E05AFE4F8491882399F090E083
:10098000880F991FFC01E45DFE4FA591B491FC0115
:10099000EA5BFE4F859194918FB7F894EC91E22B2E
:1009A000EC938FBF60E0F80180810E944D01219699
:1009B0000E5F1F4FC632D105A9F6DF91CF911F916F
:1009C0000F9108951F93FC0199278827BC01E89493
:1009D00011911032E9F3193010F01E30C8F31B32B8
:1009E00051F01D3249F4689406C00E941405610F4D
:1009F000711D811D911D119110531A30B0F33EF4F9
:100A000090958095709561957F4F8F4F9F4F1F9167
:100A10000895BB274A3031F4992322F4BDE2909522
:100A200081959F4F0C942A05592F482F372F262F39
:100A3000660F771F881F991F660F771F881F991FE2
:100A4000620F731F841F951F660F771F881F991FE2
:100A50000895BB27FB015527AA27880F991FAA1FB6
:100A6000A41710F0A41B83955051B9F7A05DAA33C9
:100A700008F0A95DA193009779F7B111B193119294
:100A8000CB010C944305DC01FC01672F71917723A6
:100A9000E1F7329704C07C916D9370836291AE1739
:100AA000BF07C8F30895EE0FFF1F881F8BBF079085
:100AB000F691E02D19940F931F93CF93DF9382301B
:100AC000910510F482E090E0E0918C02F0918D02AB
:100AD00030E020E0B0E0A0E0309799F42115310536
:100AE00009F44AC0281B390B24303105D8F58A8116
:100AF0009B816115710589F1FB0193838283FE015E
:100B000011C0408151810281138148175907E0F0DB
:100B10004817590799F4109761F012960C931297A1
:100B200013961C933296CF01DF91CF911F910F91B5
:100B3000089500938C0210938D02F4CF2115310596
:100B400051F04217530738F0A901DB019A01BD01AA
:100B5000DF01F801C1CFEF01F9CF90938D028093AF
:100B60008C02CDCFFE01E20FF31F819391932250AF
:100B7000310939832883D7CF20918A0230918B02A3
:100B8000232B41F4209102023091030230938B0217
:100B900020938A0220910002309101022115310533
:100BA00041F42DB73EB74091040250910502241B39
:100BB000350BE0918A02F0918B02E217F307A0F463
:100BC0002E1B3F0B2817390778F0AC014E5F5F4FA3
:100BD0002417350748F04E0F5F1F50938B02409348
:100BE0008A02819391939FCFF0E0E0E09CCFCF9376
:100BF000DF930097E9F0FC01329713821282A091F3
:100C00008C02B0918D02ED0130E020E01097A1F44C
:100C100020813181820F931F20918A0230918B02B3
:100C20002817390709F061C0F0938B02E0938A021C
:100C3000DF91CF910895EA01CE17DF07E8F54A81E9
:100C40005B819E0141155105B1F7E901FB83EA8300
:100C500049915991C40FD51FEC17FD0761F48081AC
:100C600091810296840F951FE9019983888382817F
:100C700093819B838A83F0E0E0E012968D919C91B2
:100C800013970097B9F52D913C911197CD010296DC
:100C9000820F931F20918A0230918B022817390707
:100CA00039F6309751F510928D0210928C02B09364
:100CB0008B02A0938A02BCCFD383C283408151812F
:100CC000840F951FC817D90761F44E5F5F4F888165
:100CD0009981480F591F518340838A819B81938357
:100CE00082832115310509F0B0CFF0938D02E09396
:100CF0008C029ECFFD01DC01C0CF13821282D7CFC0
:100D00004F925F926F927F928F929F92AF92BF921B
:100D1000CF92DF92EF92FF920F931F93CF93DF93C7
:100D20008C01009799F4CB01DF91CF911F910F9126
:100D3000FF90EF90DF90CF90BF90AF909F908F90FB
:100D40007F906F905F904F900C945B05FC01E60FD5
:100D5000F71F9C0122503109E217F30708F4AEC0D7
:100D6000D901CD91DC911197C617D70720F1C53075
:100D7000D10578F0CE0104978617970750F0C61B6F
:100D8000D70B2297C193D1936D937C93CF010E948F
:100D9000F705C801DF91CF911F910F91FF90EF9060
:100DA000DF90CF90BF90AF909F908F907F906F908B
:100DB0005F904F9008955B01AC1ABD0A4C018C0EF8
:100DC0009D1EA0918C02B0918D02512C412CF12CD2
:100DD000E12C109731F580918A0290918B02881551
:100DE000990509F05CC04616570608F058C0809176
:100DF000000290910102009741F48DB79EB7409197
:100E0000040250910502841B950BE817F90708F0BE
:100E100055C0F0938B02E0938A02F90171836083DD
:100E2000B8CF8D919C91119712966C901297139652
:100E30007C901397A815B90559F56C0142E0C40ED2
:100E4000D11CCA14DB0420F1AC014A195B09DA0198
:100E50001296159780F06282738251834083D90184
:100E60006D937C93E114F10471F0D7011396FC9318
:100E7000EE9312978ECF22968C0F9D1FF9019183CE
:100E80008083F301EFCFF0938D02E0938C0281CF4A
:100E90004816590608F42C017D01D3019ACFCB01E5
:100EA0000E945B057C01009749F0AE01B8010E94E9
:100EB0006107C8010E94F70587016BCF10E000E0D1
:100EC00068CFFB01DC0102C001900D9241505040FF
:100ED000D8F70895FB01DC0101900D920020E1F7A5
:060EE0000895F894FFCF15
:100EE60000008E02800000000000000000000000EC
:100EF60000000000010000000000010000000000EA
:100F060000000100010000000100000000000000D8
:100F160001000000010000000100010000000000C7
:100F260001000100010001000000000000000100B6
:0E0F36000000000001000100010001000100A8
:00000001FF
