:100000000C9438010C9469010C9469010C946901F9
:100010000C9469010C9469010C9469010C946901B8
:100020000C9469010C9469010C9469010C946901A8
:100030000C9469010C9469010C9469010C94690198
:100040000C9469010C9469010C9469010C94690188
:100050000C9469010C9469010C9469010C94B40628
:100060000C9469010C9469010C9469010C94690168
:100070000C9469010C9469010C9469010C94690158
:100080000C9469010C9469010C9469010C94690148
:100090000C9469010C9469010C9469010C94690138
:1000A0000C9469010C9469010C9469010C94690128
:1000B0000C9469010C9469010C9469010C94690118
:1000C0000C9469010C9469010C9469010C94690108
:1000D0000C9469010C9469010C9469010C946901F8
:1000E0000C9469010C9461020C943B020C9457022D
:1000F0000C945D020C9441020C9445020C94530242
:100100000C944F020C948B030C94600B0C942602FD
:100110000C9465050C942A020C9422020C942E0275
:100120000C94B8030C9480030C9449020C945C0268
:100130000C9488030C9431020C9437020C941C022A
:100140000C94B9030C94B90A0C94840300002100A8
:10015000240027002A002D00300033000101000098
:10016000040107010A0100002200250028002B00DD
:100170002E003100340002010000050108010B01CE
:10018000000020002300260029002C002F00320050
:100190000001000003010601090105050505070529
:1001A00008080808020202020A0A080804040404F3
:1001B000010101010101010103030303030303031F
:1001C000040707070C0C0C0C0C0C0C0C02020202AE
:1001D00006060606060606060B0B0B0B0B0B0B0B97
:1001E0000102102020080810204010204080020149
:1001F000020108040201010204081020408080402E
:10020000201008040201800402018040201008042C
:1002100002010804020101020408102040800102CA
:1002200004081020408000000A0B02090C0D0E0883
:1002300007030401000000000000000000000000AF
:1002400000000000000000000000000000000000AE
:10025000000012111000000000000000000000006B
:10026000000000000000000000000000B90A600B60
:1002700011241FBECFEFD1E2DEBFCDBF00E00CBF27
:1002800024E0AEE7B3E001C01D92A734B207E1F766
:1002900013E0A0E0B2E0E2ECFBE100E00BBF02C043
:1002A00007900D92AE37B107D9F711E0C7E3D1E05F
:1002B00000E006C021970109802FFE010E94A80BD3
:1002C000C633D10780E00807A9F70E94FE060C9408
:1002D000CF0D0C94000096E0899FD0011124AB56FD
:1002E000BC4F90967C936E935F9791E091969C9310
:1002F0009197E0910204F0910304909101049923F5
:1003000039F0309751F0811108C08091B1031994F0
:10031000309719F05C968C91FACF0895CF92DF92C6
:10032000EF92FF920F931F9396E0899FF0011124A3
:10033000EB56FC4F11A2278D30A12130310551F130
:1003400078F02230310509F451C02330310509F429
:1003500052C01F910F91FF90EF90DF90CF900895C2
:100360006623B9F361E070E00E946B012FB7F89447
:100370008091910390919203A0919303B091940383
:100380002FBF8093ED039093EE03A093EF03B09300
:10039000F003DFCF9FB7F894C0909103D090920301
:1003A000E0909303F09094039FBF0091ED031091B0
:1003B000EE032091EF033091F003C01AD10AE20A54
:1003C000F30A0091FF031091000430E020E00C15C7
:1003D0001D052E053F0550F462E070E01F910F915E
:1003E000FF90EF90DF90CF900C946B016111B1CF33
:1003F00063E070E0F3CF70E060E0F0CF81508231D5
:1004000008F05AC0E82FF0E08827E65FFD4F8F4FD5
:100410000C94A80B2A022E021C02220226025C0265
:10042000310237023B024102450249024F025302A8
:100430005C0257025D026102809180008F77809399
:1004400080000895809180008F7DF9CF8091800099
:10045000877FF5CF84B58F7784BD089584B58F7D70
:10046000FBCF8091B0008F778093B000089580918A
:10047000B0008F7DF9CF809190008F7780939000AE
:100480000895809190008F7DF9CF80919000877FB3
:10049000F5CF8091A0008F778093A0000895809180
:1004A000A0008F7DF9CF8091A000877FF5CF80914C
:1004B00020018F77809320010895809120018F7D06
:1004C000F9CF80912001877FF5CFCF93DF93282F3D
:1004D00030E0F901EA5DFD4F8491F901E052FE4FF1
:1004E000D491F901E656FE4FC491CC23A1F08111BD
:1004F0000E94FE01EC2FF0E0EE0FFF1FE058FE4FD0
:10050000A591B491EC91ED2381E090E009F480E0B5
:10051000DF91CF91089580E090E0FACF1F93CF93C1
:10052000DF93282F30E0F901EA5DFD4F8491F90156
:10053000E052FE4FD491F901E656FE4FC491CC2310
:10054000A9F0162F81110E94FE01EC2FF0E0EE0FB2
:10055000FF1FEA59FE4FA591B4918FB7F894EC9123
:10056000111108C0D095DE23DC938FBFDF91CF91AE
:100570001F910895DE2BF8CFCF93DF9390E0FC011D
:10058000E052FE4F249186569E4FFC0184918823B1
:10059000C9F090E0880F991FFC01E45BFE4FA59124
:1005A000B491FC01EA59FE4FC591D49161110DC07F
:1005B0009FB7F8948C91209582238C93888128236F
:1005C00028839FBFDF91CF910895623051F49FB788
:1005D000F8943C91822F809583238C93E8812E2B75
:1005E000EFCF8FB7F894EC912E2B2C938FBFEACFDF
:1005F0003FB7F89480918D0390918E03A0918F0363
:10060000B091900326B5A89B05C02F3F19F0019625
:10061000A11DB11D3FBFBA2FA92F982F8827BC015C
:10062000CD01620F711D811D911D42E0660F771F84
:10063000881F991F4A95D1F708958F929F92AF9284
:10064000BF92CF92DF92EF92FF920E94F8024B018D
:100650005C018AE0C82ED12CE12CF12C0E94F8021A
:10066000681979098A099B09683E734081059105DB
:10067000A8F321E0C21AD108E108F10888EE880E3B
:1006800083E0981EA11CB11CC114D104E104F10443
:1006900029F7FF90EF90DF90CF90BF90AF909F90A1
:1006A0008F900895EF92FF920F931F93CF93DF9354
:1006B000EB0123E0CC0FDD1F2A95E1F7CD5DDB4F89
:1006C0007C0133E0EE0CFF1C3A95E1F710E000E00E
:1006D00088812296F801EE0DFF1DE15DFD4F6081DE
:1006E0000E948E020E941D030E5F1F4F08301105ED
:1006F00079F7DF91CF911F910F91FF90EF900895BF
:10070000862F642F0C94BC02862F642F0C948E02CB
:10071000862F0C946502AF92BF92CF92DF92EF9238
:10072000FF920F931F93CF93DF936C017B018B019B
:10073000040F151FEB015E01AE18BF08C017D107EB
:1007400059F06991D601ED91FC910190F081E02D75
:10075000C6011995892B79F7C501DF91CF911F91BA
:100760000F91FF90EF90DF90CF90BF90AF900895E2
:10077000089590E080E00895E0910404F09105046C
:10078000DC016D917C913097D9F061157105A9F468
:100790008091080490910904892BA9F0808190E050
:1007A0000895FC0184819581892B69F0DB018C918E
:1007B00090E09195819591090895CF010C94BF0D1A
:1007C0006115710571F790E080E00895CF93DF9394
:1007D000EC0160E08E810E948E0261E08E810E94B9
:1007E0008E0260E08E810E948E028BE891E001977C
:1007F000F1F7DF91CF910895CF92DF92EF92FF92C0
:100800000F931F93CF93DF936C017C0187E0E80E79
:10081000F11CD0E0C0E0062F10E0B8010C2E02C0A1
:10082000759567950A94E2F76170F70181917F01F0
:100830000E948E022196C430D10579F7C601DF915E
:10084000CF911F910F91FF90EF90DF90CF900C947C
:10085000E603CF92DF92EF92FF920F931F93CF9315
:10086000DF93EC01F62E642F8C810E948E028D8125
:100870008F3F19F060E00E948E020F2D10E08F85EF
:1008800084FF25C06E0187E0C80ED11CF12CE12C3D
:10089000B8010E2C02C0759567950A94E2F7617055
:1008A000F60181916F010E948E02FFEFEF1AFF0A9D
:1008B00088E0E816F10461F7CE01DF91CF911F9136
:1008C0000F91FF90EF90DF90CF900C94E603B8016A
:1008D00084E0759567958A95E1F7CE010E94FC0347
:1008E0006F2DCE01DF91CF911F910F91FF90EF906F
:1008F000DF90CF900C94FC0340E0682F8AE094E0F6
:100900000C942904CF93DF93823029F49091190439
:1009100098609093190480931D0410921E0480E443
:1009200080931F0480E18093200480E5809321045C
:1009300061E080910E040E94BC0280910F048F3F01
:1009400019F061E00E94BC0261E0809110040E94F5
:10095000BC02CAE0D4E09E012A50344080911904C0
:1009600084FD0BC084E090E021962817390744F4F9
:1009700061E08E810E94BC02EECF88E090E0F4CF6F
:100980008BE39DE00197F1F760E080910E040E94F7
:100990008E0260E0809110040E948E0280910F040C
:1009A0008F3F19F060E00E948E028091190484FD4F
:1009B00039C063E08AE094E00E94FC03CBE4D6E413
:1009C000CE010197F1F763E08AE094E00E94FC0316
:1009D0002197F1F763E08AE094E00E94FC0383E54D
:1009E00092E00197F1F762E08AE094E00E94FC0354
:1009F0008091190480620E947C0484E080931A0430
:100A00008CE00E947C0481E00E947C048BE39FE1E7
:100A10000197F1F782E080931B0486E0DF91CF918C
:100A20000C947C0480620E947C048BE496E4019721
:100A3000F1F78091190480620E947C0483E592E0C2
:100A40000197F1F78091190480620E947C04D0CF55
:100A50000F931F93CF93DF938C01EB0181E00E94F2
:100A60007C048BE39FE10197F1F7E1E080911D04A5
:100A70008111E0E0E195F0E0E65FFB4F848980685A
:100A80000E947C04F80144815581608171818AE073
:100A900094E00E948B03E0911D04E230A0F4E15049
:100AA000F0E0E65FFB4F848980680E947C044C8103
:100AB0005D81688179818AE094E0DF91CF911F9117
:100AC0000F910C948B03E1E0EBCF41E00E942904ED
:100AD00081E090E008950F931F93CF93DF93EC0193
:100AE00088819981009759F02A813B812617370721
:100AF00030F081E0DF91CF911F910F9108958B012C
:100B00006F5F7F4F0E94D50C009759F099838883BF
:100B10001B830A832C813D81232B59F7FC01108212
:100B2000E8CF80E0E7CFCF93DF93EC018881998114
:100B3000009711F00E944C0C198218821D821C82B1
:100B40001B821A82DF91CF910895EF92FF920F934B
:100B50001F93CF93DF93EC017B018A01BA010E94BE
:100B60006B0581110BC0CE010E949305CE01DF9170
:100B7000CF911F910F91FF90EF9008951D830C83EB
:100B8000B701888199810E94C80DF0CFFB010190C7
:100B90000020E9F73197AF01461B570B0C94A505D0
:100BA000CF93DF93EC01FB018617970749F0608133
:100BB00071816115710541F0448155810E94A5053F
:100BC000CE01DF91CF9108950E949305F9CFFC01EA
:100BD0001182108213821282158214820C94D00525
:100BE000FC01118210821382128215821482FB0191
:100BF00001900020E9F73197AF01461B570B0C9489
:100C0000A505FC0180819181009711F00C944C0C9A
:100C10000895DF92EF92FF920F931F93CF93DF938C
:100C200000D000D01F921F92CDB7DEB77C018AE2C0
:100C3000D82ED70114968D919C91049778F5B70121
:100C4000CE0101960E94E705DF8218860D811E8184
:100C50000F5F1F4FB801CE0101960E946B058823DC
:100C6000C1F029813A818D819E81BE01695F7F4FEC
:100C7000820F931F0E94C80D1E830D83BE016F5FFC
:100C80007F4FC7010E94D005CE0101960E94010648
:100C9000D0CFCE0101960E949305F0CF10E000E086
:100CA000F701848195810817190730F40190F081CC
:100CB000E02D309709F048C010922204E2E2F4E0FF
:100CC00020812A3209F44AC00817190728F4D701ED
:100CD000ED91FC913097D9F510922204E2E2F4E014
:100CE00080811A8219821C821B821E821D828F8340
:100CF0001886BE01695F7F4FCE0101960E94C6052E
:100D000089819A81009731F10E946C0BCB01B80167
:100D10000E945203CE0101960E9401060E941D030B
:100D20000F5F1F4F0430110509F0BACF28960FB698
:100D3000F894DEBF0FBECDBFDF91CF911F910F9111
:100D4000FF90EF90DF900895E00FF11FB9CFE00F13
:100D5000F11FC6CF80E090E0DC01D9CFB8018AE076
:100D600090E00E945203DACF1F920F920FB60F92BB
:100D700011242F933F938F939F93AF93BF938091B1
:100D8000910390919203A0919303B09194033091B9
:100D90008C0323E0230F2D3758F50196A11DB11DBB
:100DA00020938C038093910390939203A0939303D9
:100DB000B093940380918D0390918E03A0918F0343
:100DC000B09190030196A11DB11D80938D03909366
:100DD0008E03A0938F03B0939003BF91AF919F9127
:100DE0008F913F912F910F900FBE0F901F901895EC
:100DF00026E8230F0296A11DB11DD2CFCF93DF931A
:100E0000CDB7DEB72C970FB6F894DEBF0FBECDBFBF
:100E1000789484B5826084BD84B5816084BD85B5D5
:100E2000826085BD85B5816085BD80916E008160E1
:100E300080936E0010928100809181008260809387
:100E40008100809181008160809381008091800089
:100E50008160809380008091B10084608093B100B4
:100E60008091B00081608093B00080919100826099
:100E70008093910080919100816080939100809196
:100E800090008160809390008091A10082608093A7
:100E9000A1008091A10081608093A1008091A000B9
:100EA00081608093A0008091210182608093210164
:100EB00080912101816080932101809120018160D6
:100EC0008093200180917A00846080937A008091E1
:100ED0007A00826080937A0080917A0081608093AA
:100EE0007A0080917A00806880937A001092C10025
:100EF00062E08DE00E94BC0262E08EE00E94BC02D3
:100F000082E00E94820464E074E0CE0101960E94B7
:100F1000E705CE0101960E940906CE0101960E94C6
:100F200001066BE073E0CE0101960E94F00567E8D0
:100F300072E0CE0107960E94F005BE016F5F7F4F01
:100F4000CE0107960E942805CE0107960E94010651
:100F5000CE0101960E940106412C512C320143948E
:100F600041ED842E43E0942E51E0509301048FB75D
:100F7000F894409191035091920360919303709182
:100F800094038FBF8091F1039091F203A091F3033A
:100F9000B091F403481B590B6A0B7B0B8091FD0346
:100FA0009091FE03B0E0A0E084179507A607B7076D
:100FB00008F012C110E08091FB03181760F4E09173
:100FC000F703F091F803E10FF11D62E080810E94C8
:100FD000BC021F5FF0CF312C8091FC03381608F063
:100FE00061C0E32CF12CE091F903F091FA03EE0DCE
:100FF000FF1D61E080810E94BC02E091F903F09145
:10100000FA03EE0DFF1D60E080810E948E02D30185
:10101000C201032C04C0880F991FAA1FBB1F0A948A
:10102000D2F75C016C01C094D094212C8091FB0319
:10103000281608F5022D10E0E091F703F091F8036F
:10104000E00FF11F80810E9465020C5F1F4F000FAF
:10105000111FF801EB56FC4F892B41F480819181DF
:101060008A299B29918380832394E0CF8081918179
:101070008C219D21F7CFE091F903F091FA03EE0D59
:10108000FF1D61E080810E948E028091F9039091A2
:10109000FA03E80EF91E60E0F70180810E94BC02AD
:1010A00033949ACF95E9E92E93E0F92E8701F80160
:1010B000878D90A1892B31F4148E8FEF9FEF968F3F
:1010C000858F11A20A5F1F4F8016910681F7D12CE0
:1010D0008091FB03D81608F053C0C12CAD2CB12C65
:1010E000AA0CBB1CF501E356FC4F5F012091FC03E9
:1010F000C21608F043C0F501608171810C2C02C05A
:10110000769567950A94E2F7D29E900111242C0DF2
:10111000311DE5E9F3E080E0458D568D2417350754
:1011200009F425C28F5F36968A30B1F760FF24C07C
:10113000E5E9F3E090E080E0448D411118C0E091D2
:10114000F503F091F603E20FF31F408156E0589F3C
:10115000F001599FF00D1124EB56FC4F448F368F50
:10116000258F10A2178E61E00E948E0105C00196A6
:1011700036968A30910501F7C394B8CFD394A8CF9F
:1011800080E0F70191A19111892FF6E0EF0EF11C9B
:10119000E016F106B1F79FB7F89440919103509192
:1011A000920360919303709194039FBF4093F10366
:1011B0005093F2036093F3037093F403882361F078
:1011C0008091B603882341F08091B4039091B503D8
:1011D0001091B103019719F01092010410E08DE015
:1011E0000E946502892B39F580918A0390918B03C7
:1011F000019709F56BE073E0CE0101960E94F005BE
:1012000067E972E0CE0107960E94F005BE016F5FAC
:101210007F4FCE0107960E942805CE0107960E94B7
:101220000106CE0101960E94010682E090E09093B3
:101230008B0380938A038EE00E946502892BC9F597
:1012400080918A0390918B03019799F510928B03FB
:1012500010928A036BE073E084E094E00E94C6057C
:101260006BE073E0CE0101960E94F00567E872E042
:10127000CE0107960E94F005BE016F5F7F4FCE0141
:1012800007960E942805CE0107960E940106CE010E
:1012900001960E94010664E074E0CE0101960E946E
:1012A000E705CE0101960E940906CE0101960E9433
:1012B0000106112309F498C0809108049091090453
:1012C0001A3209F042C0009741F10197E0910404FD
:1012D000F0910504E80FF91F909309048093080426
:1012E00010826BE073E0CE0101960E94F00567EA80
:1012F00072E0CE0107960E94F005BE016F5F7F4F3E
:10130000CE0107960E942805CE0107960E9401068D
:10131000CE0101960E94010659C067EB72E0CE0132
:1013200001960E94F0056FEB72E0CE0107960E94D5
:10133000F005BE016F5F7F4FCE0107960E94280522
:10134000CE0107960E9401064BC0133209F0E2C09D
:10135000049709F0D6C080918A0390918B0300977F
:1013600009F066C08091880390918903049709F081
:1013700043C084E893E00E94BC03892BE9F56CEC40
:1013800072E0CE0101960E94F0056BED72E0CE0195
:1013900007960E94F005BE016F5F7F4FCE01079652
:1013A0000E942805CE0107960E940106CE010196F3
:1013B0000E940106E1E0F0E0F0938B03E0938A03E2
:1013C0006BE073E084E094E00E94C60564E074E0A2
:1013D000CE0101960E94E705CE0101960E94090602
:1013E000CE0101960E940106E0E0F0E0EF2B09F447
:1013F000BBCD0E940000B8CD6DEE72E0CE0101962B
:101400000E94F00568EF72E0CE0107960E94F00599
:10141000BE016F5F7F4FCE0107960E942805CE0167
:1014200007960E940106CE0101960E940106C8CFD0
:101430008230910541F564E074E08EE793E00E940C
:10144000D0056DEA72E0CE0101960E94F0056CE0D5
:1014500073E0CE0107960E94F005BE016F5F7F4FDB
:10146000CE0107960E942805CE0107960E9401062C
:10147000CE0101960E94010683E090E090938B03D9
:1014800080938A039DCF039709F09ACF80918203BE
:1014900090918303049761F58EE793E00E94BC036B
:1014A000892B31F56EE773E084E893E00E94D00564
:1014B00068E173E0CE0101960E94F00566E273E0F8
:1014C000CE0107960E94F005BE016F5F7F4FCE01EF
:1014D00007960E942805CE0107960E940106CE01BC
:1014E00001960E94010610928B0310928A0368CF26
:1014F0006DEE72E0CE0101960E94F00567E373E0A5
:1015000083CF61E473E0CE0101960E94F00560E5AF
:1015100073E00BCF8430910508F519831A828C0192
:101520000F5F1F4FB80184E094E00E946B05882391
:1015300009F4D7CE20910404309105048091080469
:1015400090910904BE016F5F7F4F820F931F0E942D
:10155000C80D1093090400930804C3CE6CE573E032
:10156000CE0101960E94F0056AE673E0DECE61705E
:10157000FBCD0F931F93CF93DF9310920D04109226
:101580000C0487E292E090930B0480930A048CE0B1
:1015900080930E048FEF80930F048BE080931004F0
:1015A0008AE08093110489E08093120488E080939C
:1015B000130487E08093140410921504109216040B
:1015C00010921704109218041092190481E00E94DE
:1015D00082041092970310929B0310929A03109228
:1015E0009C038DE192E09093960380939503E1EB49
:1015F000F3E01082148213821582369683E0ED3E6A
:10160000F807B9F783E092E09093F8038093F7032B
:1016100080E092E09093FA038093F90384E0809352
:10162000FB0383E08093FC0387E092E09093F60352
:101630008093F5038AE090E09093FE038093FD038E
:1016400084EF91E0909300048093FF0310920304D1
:10165000109202041092F1031092F2031092F3031D
:101660001092F4031092010403E214E0C6E1D0E00A
:10167000F801D183C08361E08C2F0E94BC0260E03E
:10168000F80180810E948E0221960E5F1F4FC632A4
:10169000D10571F769E773E084E893E00E94F005F3
:1016A0006BE073E084E094E00E94F0056BE073E08F
:1016B0008EE793E0DF91CF911F910F910C94F0058D
:1016C0008EE793E00E94010684E094E00E94010608
:1016D00084E893E00C9401061F93FC019927882766
:1016E000BC01E89411911032E9F3193010F01E306A
:1016F000C8F31B3251F01D3249F4689406C00E94B1
:10170000930B610F711D811D911D119110531A30A2
:10171000B0F33EF490958095709561957F4F8F4F13
:101720009F4F1F910895592F482F372F262F660F4F
:10173000771F881F991F660F771F881F991F620FD9
:10174000731F841F951F660F771F881F991F0895A9
:10175000EE0FFF1F881F8BBF0790F691E02D1994A5
:101760000F931F93CF93DF938230910510F482E0A3
:1017700090E0E0914504F091460430E020E0B0E0D4
:10178000A0E0309799F42115310509F44AC0281BCF
:10179000390B24303105D8F58A819B81611571059B
:1017A00089F1FB0193838283FE0111C04081518145
:1017B0000281138148175907E0F04817590799F437
:1017C000109761F012960C93129713961C93329611
:1017D000CF01DF91CF911F910F91089500934504A0
:1017E00010934604F4CF2115310551F042175307E9
:1017F00038F0A901DB019A01BD01DF01F801C1CF79
:10180000EF01F9CF9093460480934504CDCFFE01BC
:10181000E20FF31F8193919322503109398328837A
:10182000D7CF2091430430914404232B41F42091DD
:101830001502309116023093440420934304209102
:101840001302309114022115310541F42DB73EB732
:101850004091170250911802241B350BE09143046C
:10186000F0914404E217F307A0F42E1B3F0B281756
:10187000390778F0AC014E5F5F4F2417350748F009
:101880004E0F5F1F50934404409343048193919300
:101890009FCFF0E0E0E09CCFCF93DF930097E9F09B
:1018A000FC01329713821282A0914504B091460444
:1018B000ED0130E020E01097A1F420813181820F0A
:1018C000931F20914304309144042817390709F0ED
:1018D00061C0F0934404E0934304DF91CF910895F5
:1018E000EA01CE17DF07E8F54A815B819E014115C9
:1018F0005105B1F7E901FB83EA8349915991C40F7E
:10190000D51FEC17FD0761F4808191810296840F49
:10191000951FE90199838883828193819B838A83C0
:10192000F0E0E0E012968D919C9113970097B9F545
:101930002D913C911197CD010296820F931F20911A
:101940004304309144042817390739F6309751F58C
:101950001092460410924504B0934404A0934304AB
:10196000BCCFD383C28340815181840F951FC81798
:10197000D90761F44E5F5F4F88819981480F591FE5
:10198000518340838A819B81938382832115310512
:1019900009F0B0CFF0934604E09345049ECFFD01DB
:1019A000DC01C0CF13821282D7CF4F925F926F9229
:1019B0007F928F929F92AF92BF92CF92DF92EF92DF
:1019C000FF920F931F93CF93DF938C01009799F4AD
:1019D000CB01DF91CF911F910F91FF90EF90DF909E
:1019E000CF90BF90AF909F908F907F906F905F90BF
:1019F0004F900C94B00BFC01E60FF71F9C01225096
:101A00003109E217F30708F4AEC0D901CD91DC919A
:101A10001197C617D70720F1C530D10578F0CE0150
:101A200004978617970750F0C61BD70B2297C193D0
:101A3000D1936D937C93CF010E944C0CC801DF9130
:101A4000CF911F910F91FF90EF90DF90CF90BF90BB
:101A5000AF909F908F907F906F905F904F90089580
:101A60005B01AC1ABD0A4C018C0E9D1EA091450471
:101A7000B0914604512C412CF12CE12C109731F5FA
:101A800080914304909144048815990509F05CC045
:101A90004616570608F058C0809113029091140220
:101AA000009741F48DB79EB74091170250911802EC
:101AB000841B950BE817F90708F055C0F093440410
:101AC000E0934304F90171836083B8CF8D919C91B9
:101AD000119712966C90129713967C901397A815F5
:101AE000B90559F56C0142E0C40ED11CCA14DB04DF
:101AF00020F1AC014A195B09DA011296159780F0C2
:101B00006282738251834083D9016D937C93E11487
:101B1000F10471F0D7011396FC93EE9312978ECFD8
:101B200022968C0F9D1FF90191838083F301EFCFE3
:101B3000F0934604E093450481CF4816590608F413
:101B40002C017D01D3019ACFCB010E94B00B7C0107
:101B5000009749F0AE01B8010E94B60DC8010E947D
:101B60004C0C87016BCF10E000E068CFFB01DC017B
:101B700002C001900D9241505040D8F70895FB01EA
:101B8000DC018D91019080190110D9F3990B089512
:101B9000FB01DC0101900D920020E1F7089511E0B6
:101BA000C7E3D1E000E006C0802FFE010E94A80B31
:101BB0002196011DC833D10780E00807A9F7F894E2
:021BC000FFCF55
:101BC2000201000304050631323334353637383921
:101BD2002A302300004704800000000000800384B4
:101BE2000388030000000065058B03B903B80300F6
:101BF20000000000000000000000000000010000E2
:101C020000000001000000000000000100010000CF
:101C120000010000000000000001000000010000BF
:101C220000010001000000000001000100010001AC
:101C3200000000000000000100000000000100019F
:101C420000010001000100456E746572207061732D
:101C520073776F72643A00456E746572206E6577B1
:101C620020706173733A00456E746572205061731F
:101C720073776F72643A0064656C65746521004E17
:101C82006F2064696769747320746F004368616EC2
:101C92006765206974206E6F772E005061737377C9
:101CA2006F726420436F727265637421005472799B
:101CB20020616761696E2E0050617373776F726481
:101CC200496E636F7272656374202100436F6E66A2
:101CD20069726D204E657700537563636573736631
:101CE200756C6C79210050617373776F7264204355
:101CF20068616E676564004D69736D617463682124
:101D0200006C657373207468616E203462697400BC
:101D12005468652070617373206973004D61782087
:101D220034206469676974732E004C696D6974208C
:0E1D3200526561636865642100303030300016
:00000001FF
